:0400030002080000EF
:10014000758901D28CC28D758A17758CFCD2AFD29D
:04015000A9C2B92265
:1000F00075A0FE12014012010E8F0AE50AB401F646
:0E010000050BE50BC3940240EDE4F50B80E81F
:03000B0002009A56
:0B009A00C0E0C0D075D000C000C0075F
:1000A500758A17758CFC0509E50970020508D39456
:1000B500F4E508648094814029750800750900E518
:1000C5000B700DAFA07801EF08800103D8FDF5A0F6
:1000D500E50BB4010DAFA07801EF08800123D8FD31
:0200E500F5A084
:0900E700D007D000D0D0D0E032E7
:10010E0020B1167F147E0012012B30B1FD7F147EBC
:0D011E000012012B7E007F0122E4FEFF2273
:10012B00EF1FAC0670011E4C600A7D0B7CBEDCFE23
:04013B00DDFC80EC7B
:01013F00229D
:0300000002000EED
:0C000E00787FE4F6D8FD75810B020055E8
:10001A000200F0E493A3F8E493A34003F68001F20C
:10002A0008DFF48029E493A3F85407240CC8C333E7
:10003A00C4540F4420C8834004F456800146F6DFB6
:10004A00E4800B0102040810204080900003E47E43
:10005A00019360BCA3FF543F30E509541FFEE493AB
:10006A00A360010ECF54C025E060A840B8E493A372
:10007A00FAE493A3F8E493A3C8C582C8CAC583CA9D
:10008A00F0A3C8C582C8CAC583CADFE9DEE780BE55
:0100070000F8
:00000001FF
