:07025C00636F756E743A0038
:040269007F07DFFE2E
:01026D00226E
:100119001202511202027BFF7A02795C7D017F0192
:10012900120191750B03AB157D017F021201C0E528
:1001390015D3941440EDE4F516E516C3946450E321
:10014900750B03AB157D017F021201C0B2A5120226
:0501590069051680E4B9
:0300030002026393
:0602630030B2FD0515326A
:0B025100D288C289D2A8D2AFD2B82256
:06022900C2A58F80D2A7E0
:08022F007F027EC7DEFEDFFC4A
:0102370022A4
:030238004480FF00
:0A023B00C2A6120229C2A702022F78
:1001E400CFCDCFCECCCE1200457C007D0A12004587
:0401F400ED2430FFC7
:0A01F800D2A6120229C2A702022FAC
:100202007F3812023B7F0C12023B7F0612023B7FB9
:040212000102023BA8
:10021600AC03EDBF0103148002243F120238AF0481
:030226000201F8DA
:0C015E00EA24FFFDE434FFFC7F0A7E0071
:08016A008E0C8F0D8C0E8D0F21
:100172007F017E00E4FBEBC3950FE50E6480F8740B
:0E0182008098500AAC0CAD0D1200330B80E8D3
:01019000224C
:0201C0008B0AA8
:1001C200EDBF0103148002243F120238AA0BEAD3C6
:1001D2009400400D12015EAD0A7C001201E41A8007
:0101E200ED2F
:0101E30022F9
:060191008B088A09890AAF
:10019700EDBF0103148002243F4480FF12023BE4B9
:1001A700FDAB08AA09A90A8D82758300120006FF14
:0801B70060061201F80D80E959
:0101BF00221D
:0400D0008A128B13F2
:1000D400EDBF0103148002243F4480FF12023BC39E
:1000E400E5126480948040077F2B1201F880107F12
:1000F4002D1201F8C3E49513F513E49512F512AA31
:1001040014EAD39400400D12015EAC12AD13120137
:04011400E41A80ED7C
:0101180022C4
:03000000020245B4
:0C024500787FE4F6D8FD758116020119DF
:10000600BB010CE58229F582E5833AF583E02250AF
:1000160006E92582F8E622BBFE06E92582F8E222F9
:0D002600E58229F582E5833AF583E4932213
:10003300EF8DF0A4A8F0CF8CF0A428CE8DF0A42EE1
:02004300FE229B
:10004500C2D5EC30E709B2D5E4C39DFDE49CFCEED6
:1000550030E715B2D5E4C39FFFE49EFE12007BC3D3
:10006500E49DFDE49CFC800312007B30D507C3E4CE
:060075009FFFE49EFE2245
:10007B00BC000BBE0029EF8DF084FFADF022E4CC69
:10008B00F875F008EF2FFFEE33FEEC33FCEE9DEC32
:10009B00984005FCEE9DFE0FD5F0E9E4CEFD22ED78
:1000AB00F8F5F0EE8420D21CFEADF075F008EF2FC2
:1000BB00FFED33FD4007985006D5F0F222C398FDB3
:0500CB000FD5F0EA2250
:00000001FF
