:0E0324001202F97F941202008E228F2380F5C0
:03000B0002015996
:10015900C0E0C0F0C083C082C0D075D000C000C06C
:1001690001C002C003C004C005C006C007758A00EB
:10017900758CDCAE22AF237C007D0A1201048D242C
:100189007F0412027E12033EAE22AF237C007D0A59
:100199001201047C007D0A1201048D247F031202DE
:1001A9007E12033EAE22AF237C007D641201047CE3
:1001B900007D0A1201048D247F0212027E12033E81
:1001C900AE22AF237C037DE81201047C007D0A1274
:1001D90001048D247F0112027E12033ED007D0064E
:1001E900D005D004D003D002D001D000D0D0D08225
:0701F900D083D0F0D0E0320A
:020200008F1E4F
:10020200E4F51FF520F521C2B6C2B5F51F74807E54
:1002120000A81F088006CEA2E713CE13D8F8FFEF7E
:10022200551E24FF92B4D2B612033EC2B612033E4A
:10023200051FE51FC3940840D4E4F51FD2B612038C
:100242003EC2B612033E30B714E47E80A81F088077
:1002520005CEC313CE13D8F94221EE4220051FE585
:100262001FC3941040D6D2B512033EE520C4F85401
:0B027200F0C868FEE521C4540F48FFEF
:01027D00225E
:08033E007F027EADDEFEDFFC54
:010346002294
:10031000003F0006005B004F0066006D007D000797
:04032000007F006FEB
:04027E008F088D094F
:10028200780A7C007D007BFF7A0379107E007F1460
:100292001200DEE508B40806C2A2C2A3C2A4E508A1
:1002A200B40706D2A2C2A3C2A4E508B40606C2A23B
:1002B200D2A3C2A4E508B40506D2A2D2A3C2A4E581
:1002C20008B40406C2A2C2A3D2A4E508B40306D2AB
:1002D200A2C2A3D2A4E508B40206C2A2D2A3D2A4A7
:1002E200E508B40106D2A2D2A3D2A4E50925E024EE
:0602F2000AF808E6F580A1
:0102F80022E3
:1002F9005389F0438901E4F58A758CDCC28DD28C6F
:07030900D2AFD2A9C2B92254
:03000000020332C6
:0C033200787FE4F6D8FD758124020324D6
:10000E00E709F608DFFA8046E709F208DFFA803ED4
:10001E0088828C83E709F0A3DFFA8032E309F608C1
:10002E00DFFA8078E309F208DFFA807088828C8329
:10003E00E309F0A3DFFA806489828A83E0A3F608DD
:10004E00DFFA805889828A83E0A3F208DFFA804CB7
:10005E0080D280FA80C680D4806980F2803380108E
:10006E0080A680EA809A80A880DA80E280CA8033F7
:10007E0089828A83ECFAE493A3C8C582C8CCC5836F
:10008E00CCF0A3C8C582C8CCC583CCDFE9DEE7803F
:10009E000D89828A83E493A3F608DFF9ECFAA9F0BE
:1000AE00EDFB2289828A83ECFAE0A3C8C582C8CC14
:1000BE00C583CCF0A3C8C582C8CCC583CCDFEADE2D
:1000CE00E880DB89828A83E493A3F208DFF980CC8F
:1000DE0088F0EF60010E4E60C388F0ED2402B40488
:1000EE000050B9F582EB2402B4040050AF2323452F
:0600FE00822390005E73F6
:10010400BC000BBE0029EF8DF084FFADF022E4CCDF
:10011400F875F008EF2FFFEE33FEEC33FCEE9DECA8
:10012400984005FCEE9DFE0FD5F0E9E4CEFD22EDEE
:10013400F8F5F0EE8420D21CFEADF075F008EF2F38
:10014400FFED33FD4007985006D5F0F222C398FD29
:050154000FD5F0EA22C6
:00000001FF
