:0701C00061647265737300B6
:100157001200007BFF7A0179C07D017F0112000048
:0201670080F125
:0B01A100D288C289D2A8D2AFD2B82207
:100169005389F0438901E4F58CF58AC28DC28CC2AA
:02017900A922B9
:0B01AC00AD07AC068C8CAF058F8A22DB
:0901B700AF8CEFFEAD8AEDFF22D2
:0601C700EF24FF928C22E0
:0101D3002209
:0D017B00E50F6006E4F50F7F01227F0022F2
:0D018800E50C6006E4F50C7F01227F0022EB
:0301CD00AF0E2250
:0301D000AF0D224E
:03000300020006F2
:10000600C0E0C0F0C083C082C0D075D000C000C0C0
:1000160001C002C003C004C005C006C007E50870E1
:100026000DFFFE1201AC7F011201C7020112E508A5
:100036006401704E1201B78E098F0AE4FFFE1201A9
:10004600ACD3E50A94C8E50994324010E50A94B0A9
:10005600E50994365006750802020115D3E50A949F
:10006600FEE50994294018E50A94E6E509942D5021
:100076000E750C01E4FF1201C77508000201150296
:100086000112E508640260030201151201B78E0928
:100096008F0AE4FFFE1201ACD3E50A946CE50994DD
:1000A60002402AE50A9454E50994065020E50B130C
:1000B6001313541F2410F8C000E6FFE50B5407FE87
:1000C6007401A806088002C333D8FC8033D3E50A3E
:1000D60094D6E50994064031E50A94BEE509940AEA
:1000E6005027E50B131313541F2410F8C000E6FF26
:1000F600E50B5407FE7401A806088002C333D8FC3A
:10010600F45FD000F6050B8006750B00750801E557
:100116000BC394204020750B00E511F4B5100FE5D4
:1001260013F4B5120985120D85100E750F01E4FF43
:100136001201C7750800D007D006D005D004D00339
:10014600D002D001D000D0D0D082D083D0F0D0E081
:010156003276
:0300000002019565
:0C019500787FE4F6D8FD75811502015753
:00000001FF
