:0500D6007F2BDFFE227C
:10000300C2B5C2B67D7E7C00E4FF1200AC7F011254
:1000130000D67D817C007F011200AC7F011200D6E7
:100023007D957C007F021200AC7F011200D67DA17A
:100033007C007F031200AC7F011200D67DA17C00FF
:100043007F041200AC7F011200D67D957C007F05F2
:100053001200AC7F011200D67D817C007F06120066
:10006300AC7F011200D67D7E7C007F071200AC7F3F
:06007300011200D6808E90
:0400DB007F2BDFFE9A
:0100DF0022FE
:02007900AD07D1
:10007B007908E4FBAF0119EF602274017E00A8033D
:10008B00088005C333CE33CED8F9FFEDF582EF559B
:10009B008224FF92B4D2B6C2B60B80D8D2B5C2B509
:0100AB002232
:1000AC00AA07AF05120079AF027480A80708800276
:0E00BC00C313D8FCF4F5801200DB7580FF2220
:030000000200CA31
:0C00CA00787FE4F6D8FD75810702000382
:00000001FF
