:0201EB0080FE94
:10016400D2B7C2B77FE3DFFED2B77F20DFFEA2B7EC
:09017400E433FE7FE3DFFEAF0679
:01017D00225F
:1001C000C2B77E03DEFEEF24FF92B77E14DEFED2BE
:0101D000B777
:0101D100220B
:10019800C2B77F03DFFED2B7A2B7E433FE7F14DF16
:0301A800FEAF06A1
:0101AB002231
:02017E00AD07CB
:10018000E4FC7401A804088002C333D8FC5DFFFDC1
:070190001201C00CBC08EBDA
:010197002245
:1001AC00E4FDFC120198EF4205ED25E0FD0CBC08C6
:0301BC00F2AF059A
:0101BF00221D
:0D01D2001201647FCC12017E7F4402017E89
:100139001201647FCC12017E7FCC12017E1201ACC8
:100149008F081201ACEFFEE508FFFDAC06EC1200CA
:0B015900A8E4FBFA7980784102000660
:10000300020120EC5D046005E85904700302011647
:100013001200E1580460F6EC4860F2EC7004FDFE57
:10002300FF22C860DB2481C85009C39860025006D0
:1000330002011D9850CAF582E9294B4A7005AB822B
:1000430002010C75F0007C1A7880C3EF9BEE9AEDE9
:1000530099400DC3EF9BFFEE9AFEED99FDE842F048
:10006300DC23ACF0D0E0FFD0E0FED0E0FDAB82209B
:10007300E7101BEB60BAEC2CFCEF33FFEE33FEED25
:1000830033FD0200F8E803F830E705C0F075F0002F
:10009300EF2FFFEE33FEED33FD40B830E7C280AA09
:1000A30075F020800E75F010800575F0087D007ED8
:1000B300007F003392D530D50312012BEC3340106F
:1000C300EF33FFEE33FEED33FDEC33FCD5F0ED22E1
:0E00D300E5F0247EA2D513CC92E7CDCEFF221D
:1000E100E9D2E7C933E833F892D5EDD2E7CD33EC65
:0700F10033FC5002B2D522DE
:1000F800EC30E7100FBF000C0EBE00080DBD000469
:100108000BEB6014A2D5EB13FCED92E7FD2274FF14
:10011800FCFDFEFF22E480F8A2D574FF13FC7D806D
:03012800E480EF81
:030000000201DF1B
:0C01DF00787FE4F6D8FD7581080201EB82
:0E012B00C3E49FFFE49EFEE49DFDE49CFC22E5
:00000001FF
