:100174007D017F011200F97F011201BA7D027F0225
:100184001200F97F011201BA7D037F031200F97F87
:10019400011201BA7D047F041200F97F011201BA31
:0201A40080CE0B
:1001A600003F0006005B004F0066006D007D000703
:0401B600007F006F57
:1001BA00AE071FEE600A7E0B7DBEDDFEDEFC80F020
:0101CA002212
:0400F9008F088D09D6
:1000FD00780A7C007D007BFF7A0179A67E007F1453
:10010D001200D3E508B40806C2A2C2A3C2A4E50832
:10011D00B40706D2A2C2A3C2A4E508B40606C2A2C1
:10012D00D2A3C2A4E508B40506D2A2D2A3C2A4E507
:10013D0008B40406C2A2C2A3D2A4E508B40306D231
:10014D00A2C2A3D2A4E508B40206C2A2D2A3D2A42D
:10015D00E508B40106D2A2D2A3D2A4E50925E02474
:06016D000AF808E6F58027
:010173002269
:030000000201CB2F
:0C01CB00787FE4F6D8FD75811D020174F8
:10000300E709F608DFFA8046E709F208DFFA803EDF
:1000130088828C83E709F0A3DFFA8032E309F608CC
:10002300DFFA8078E309F208DFFA807088828C8334
:10003300E309F0A3DFFA806489828A83E0A3F608E8
:10004300DFFA805889828A83E0A3F208DFFA804CC2
:1000530080D280FA80C680D4806980F28033801099
:1000630080A680EA809A80A880DA80E280CA803302
:1000730089828A83ECFAE493A3C8C582C8CCC5837A
:10008300CCF0A3C8C582C8CCC583CCDFE9DEE7804A
:100093000D89828A83E493A3F608DFF9ECFAA9F0C9
:1000A300EDFB2289828A83ECFAE0A3C8C582C8CC1F
:1000B300C583CCF0A3C8C582C8CCC583CCDFEADE38
:1000C300E880DB89828A83E493A3F208DFF980CC9A
:1000D30088F0EF60010E4E60C388F0ED2402B40493
:1000E3000050B9F582EB2402B4040050AF2323453A
:0600F3008223900053730C
:00000001FF
