:06000300011E00012000B7
:10024E001202B112020B8F20E5206005051E531E0F
:10025E0003AD1E7F01120190E51E7002F521E51E11
:10026E00B40103752132E51EB4020375214BE51E60
:08027E00B403D075216480CBAC
:03000B0002028668
:10028600C0E0C0F0C0D0758A9C758CFF051FE51FC5
:1002960075F0648485F01FE51FC395215004D29044
:0B02A6008002C290D0D0D0F0D0E03237
:1002B1005389F0438901758A9C758CFFC28DD28C5C
:0702C100D2AFD2A9C2B9229D
:1002C800003F0006005B004F0066006D007D0007E0
:0402D800007F006F34
:040190008F088D093E
:10019400780A7C007D007BFF7A0279C87E007F1498
:1001A4001200DEE508B40806C2A2C2A3C2A4E50890
:1001B400B40706D2A2C2A3C2A4E508B40606C2A22A
:1001C400D2A3C2A4E508B40506D2A2D2A3C2A4E570
:1001D40008B40406C2A2C2A3D2A4E508B40306D29A
:1001E400A2C2A3D2A4E508B40206C2A2D2A3D2A496
:1001F400E508B40106D2A2D2A3D2A4E50925E024DD
:060204000AF808E6F5808F
:01020A0022D1
:0802DC007F247ED9DEFEDFFC69
:0102E40022F7
:10020B0020B10D800320B1051202DC80F87F0122A2
:10021B0020B00D800320B0051202DC80F87F022293
:10022B0020B20D800320B2051202DC80F87F03227E
:10023B0020B30D800320B3051202DC80F87F04226B
:03024B007F00220F
:03000000020104F6
:0C010400787FE4F6D8FD75812102014BE4
:10000E00E709F608DFFA8046E709F208DFFA803ED4
:10001E0088828C83E709F0A3DFFA8032E309F608C1
:10002E00DFFA8078E309F208DFFA807088828C8329
:10003E00E309F0A3DFFA806489828A83E0A3F608DD
:10004E00DFFA805889828A83E0A3F208DFFA804CB7
:10005E0080D280FA80C680D4806980F2803380108E
:10006E0080A680EA809A80A880DA80E280CA8033F7
:10007E0089828A83ECFAE493A3C8C582C8CCC5836F
:10008E00CCF0A3C8C582C8CCC583CCDFE9DEE7803F
:10009E000D89828A83E493A3F608DFF9ECFAA9F0BE
:1000AE00EDFB2289828A83ECFAE0A3C8C582C8CC14
:1000BE00C583CCF0A3C8C582C8CCC583CCDFEADE2D
:1000CE00E880DB89828A83E493A3F208DFF980CC8F
:1000DE0088F0EF60010E4E60C388F0ED2402B40488
:1000EE000050B9F582EB2402B4040050AF2323452F
:0600FE00822390005E73F6
:1001100002024EE493A3F8E493A34003F68001F2B5
:1001200008DFF48029E493A3F85407240CC8C333F0
:10013000C4540F4420C8834004F456800146F6DFBF
:10014000E4800B0102040810204080900003E47E4C
:10015000019360BCA3FF543F30E509541FFEE493B4
:10016000A360010ECF54C025E060A840B8E493A37B
:10017000FAE493A3F8E493A3C8C582C8CAC583CAA6
:10018000F0A3C8C582C8CAC583CADFE9DEE780BE5E
:0100090000F6
:00000001FF
