:0503FD0061647265005F
:10026A001203541204087BFF7A0379FD7D017F0192
:10027A001202E31203C5EF60ED1204058F21751710
:10028A0004AB217D017F02120312E521B415021588
:10029A0022E521B409020522751704AB227D097FE4
:0602AA000212031280C0E5
:06038D00C2A58F80D2A77B
:080393007F027EC7DEFEDFFCE5
:01039B00223F
:0303AB004480FF8C
:0A03AE00C2A612038DC2A70203933A
:10033600CFCDCFCECCCE1201967C007D0A1201968F
:04034600ED2430FF73
:0A034A00D2A612038DC2A70203938E
:100354007F381203AE7F0C1203AE7F061203AE7F0A
:04036400010203AEE1
:10036800AC03EDBF0103148002243F1203ABAF04BA
:0303780002034A33
:0C02B000EA24FFFDE434FFFC7F0A7E001E
:0802BC008E188F198C1A8D1B9E
:1002C4007F017E00E4FBEBC3951BE51A6480F874A0
:0E02D4008098500AAC18AD191201840B80E816
:0102E20022F9
:020312008B1648
:10031400EDBF0103148002243F1203ABAA17EAD3F2
:100324009400400D1202B0AD167C001203361A8000
:01033400EDDB
:0103350022A5
:0602E3008B148A15891638
:1002E900EDBF0103148002243F4480FF1203AEE4F2
:1002F900FDAB14AA15A9168D82758300120157FF4B
:08030900600612034A0D80E9B1
:0103110022C9
:040221008A1E8B1F87
:10022500EDBF0103148002243F4480FF1203AEC3D7
:10023500E51E6480948040077F2B12034A80107F5F
:100245002D12034AC3E4951FF51FE4951EF51EAA5A
:1002550020EAD39400400D1202B0AC1EAD1F12036C
:04026500361A80EDD8
:010269002272
:0B03DE00D288C289D2A8D2AFD2B822C8
:0104080022D1
:0D03B800E50F6006E4F50F7F01227F0022B3
:0D03C500E50C6006E4F50C7F01227F0022AC
:03040200AF0E2218
:03040500AF0D2216
:03000300020006F2
:10000600C0E0C0F0C083C082C0D075D000C000C0C0
:1000160001C002C003C004C005C006C007E50870E1
:100026000DFFFE1203E97F0112039C020112E5088F
:100036006401704E1203F48E098F0AE4FFFE120368
:10004600E9D3E50A94C8E50994324010E50A94B06C
:10005600E50994365006750802020115D3E50A949F
:10006600FEE50994294018E50A94E6E509942D5021
:100076000E750C01E4FF12039C75080002011502BF
:100086000112E508640260030201151203F48E09E9
:100096008F0AE4FFFE1203E9D3E50A946CE509949E
:1000A60002402AE50A9454E50994065020E50B130C
:1000B6001313541F2410F8C000E6FFE50B5407FE87
:1000C6007401A806088002C333D8FC8033D3E50A3E
:1000D60094D6E50994064031E50A94BEE509940AEA
:1000E6005027E50B131313541F2410F8C000E6FF26
:1000F600E50B5407FE7401A806088002C333D8FC3A
:10010600F45FD000F6050B8006750B00750801E557
:100116000BC394204020750B00E511F4B5100FE5D4
:1001260013F4B5120985120D85100E750F01E4FF43
:1001360012039C750800D007D006D005D004D00362
:10014600D002D001D000D0D0D082D083D0F0D0E081
:010156003276
:10037B005389F0438901E4F58CF58AC28DC28CC296
:02038B00A922A5
:0B03E900AD07AC068C8CAF058F8A229C
:0803F400AF8CEFFEAD8AEDFFB6
:0103FC0022DE
:0F039C00EF6004D28C8002C28CEF24FF928C227F
:030000000203D226
:0C03D200787FE4F6D8FD75812202026AF3
:10015700BB010CE58229F582E5833AF583E022505D
:1001670006E92582F8E622BBFE06E92582F8E222A7
:0D017700E58229F582E5833AF583E49322C1
:10018400EF8DF0A4A8F0CF8CF0A428CE8DF0A42E8F
:02019400FE2249
:10019600C2D5EC30E709B2D5E4C39DFDE49CFCEE84
:1001A60030E715B2D5E4C39FFFE49EFE1201CCC32F
:1001B600E49DFDE49CFC80031201CC30D507C3E42A
:0601C6009FFFE49EFE22F3
:1001CC00BC000BBE0029EF8DF084FFADF022E4CC17
:1001DC00F875F008EF2FFFEE33FEEC33FCEE9DECE0
:1001EC00984005FCEE9DFE0FD5F0E9E4CEFD22ED26
:1001FC00F8F5F0EE8420D21CFEADF075F008EF2F70
:10020C00FFED33FD4007985006D5F0F222C398FD60
:05021C000FD5F0EA22FD
:00000001FF
